{
  "contractName": "Painter",
  "abi": [
    {
      "constant": true,
      "inputs": [],
      "name": "buyersAdress",
      "outputs": [
        {
          "name": "",
          "type": "address"
        }
      ],
      "payable": false,
      "stateMutability": "view",
      "type": "function",
      "signature": "0x05f8cabf"
    },
    {
      "constant": true,
      "inputs": [],
      "name": "contractName",
      "outputs": [
        {
          "name": "",
          "type": "string"
        }
      ],
      "payable": false,
      "stateMutability": "view",
      "type": "function",
      "signature": "0x75d0c0dc"
    },
    {
      "constant": true,
      "inputs": [],
      "name": "contractVersion",
      "outputs": [
        {
          "name": "",
          "type": "string"
        }
      ],
      "payable": false,
      "stateMutability": "view",
      "type": "function",
      "signature": "0xa0a8e460"
    },
    {
      "inputs": [
        {
          "name": "_buyerAddr",
          "type": "address"
        }
      ],
      "payable": true,
      "stateMutability": "payable",
      "type": "constructor",
      "signature": "constructor"
    },
    {
      "anonymous": false,
      "inputs": [
        {
          "indexed": false,
          "name": "buyer",
          "type": "address"
        },
        {
          "indexed": false,
          "name": "name",
          "type": "string"
        }
      ],
      "name": "BuyerRegistered",
      "type": "event",
      "signature": "0x215504f5b2df3ff33ff84a1bc2f02a35e00424b7dee948d486e00e1dcd29dd5b"
    },
    {
      "anonymous": false,
      "inputs": [
        {
          "indexed": false,
          "name": "buyer",
          "type": "address"
        },
        {
          "indexed": false,
          "name": "goods",
          "type": "string"
        },
        {
          "indexed": false,
          "name": "quantity",
          "type": "uint256"
        },
        {
          "indexed": false,
          "name": "orderno",
          "type": "uint256"
        }
      ],
      "name": "OrderSent",
      "type": "event",
      "signature": "0xb7e953e9d5dc29b2595c1ea82eed1d21925712de892f26dd7323f0040bf3f59c"
    },
    {
      "anonymous": false,
      "inputs": [
        {
          "indexed": false,
          "name": "buyer",
          "type": "address"
        },
        {
          "indexed": false,
          "name": "orderno",
          "type": "uint256"
        },
        {
          "indexed": false,
          "name": "price",
          "type": "uint256"
        },
        {
          "indexed": false,
          "name": "ttype",
          "type": "int8"
        }
      ],
      "name": "PriceSent",
      "type": "event",
      "signature": "0xaf54ca7c1ecf75ea1c151f265e9ab3eeecb27d19e8d3ec6b7e199414dd0c1ed6"
    },
    {
      "anonymous": false,
      "inputs": [
        {
          "indexed": false,
          "name": "buyer",
          "type": "address"
        },
        {
          "indexed": false,
          "name": "orderno",
          "type": "uint256"
        },
        {
          "indexed": false,
          "name": "value",
          "type": "uint256"
        },
        {
          "indexed": false,
          "name": "now",
          "type": "uint256"
        }
      ],
      "name": "SafepaySent",
      "type": "event",
      "signature": "0x4ca09f9926d2e48ef31cb6b14dbda230c7420702b8a8f5b878dd572c593e99d2"
    },
    {
      "anonymous": false,
      "inputs": [
        {
          "indexed": false,
          "name": "buyer",
          "type": "address"
        },
        {
          "indexed": false,
          "name": "invoiceno",
          "type": "uint256"
        },
        {
          "indexed": false,
          "name": "orderno",
          "type": "uint256"
        },
        {
          "indexed": false,
          "name": "delivery_date",
          "type": "uint256"
        },
        {
          "indexed": false,
          "name": "courier",
          "type": "address"
        }
      ],
      "name": "InvoiceSent",
      "type": "event",
      "signature": "0xbc1c01dc0d1e366f76a22e7db8af8028033bd0a521feaf529046a6bc413ce0f0"
    },
    {
      "anonymous": false,
      "inputs": [
        {
          "indexed": false,
          "name": "buyer",
          "type": "address"
        },
        {
          "indexed": false,
          "name": "invoiceno",
          "type": "uint256"
        },
        {
          "indexed": false,
          "name": "orderno",
          "type": "uint256"
        },
        {
          "indexed": false,
          "name": "real_delivey_date",
          "type": "uint256"
        },
        {
          "indexed": false,
          "name": "courier",
          "type": "address"
        }
      ],
      "name": "OrderDelivered",
      "type": "event",
      "signature": "0x587b8bd23b43f29f1f6f1d2d4306080dbcc8f78f1ec918c6812b33001fefc990"
    },
    {
      "constant": false,
      "inputs": [
        {
          "name": "goods",
          "type": "string"
        },
        {
          "name": "quantity",
          "type": "uint256"
        }
      ],
      "name": "sendOrder",
      "outputs": [],
      "payable": true,
      "stateMutability": "payable",
      "type": "function",
      "signature": "0x9670d699"
    },
    {
      "constant": true,
      "inputs": [
        {
          "name": "number",
          "type": "uint256"
        }
      ],
      "name": "queryOrder",
      "outputs": [
        {
          "name": "buyer",
          "type": "address"
        },
        {
          "name": "goods",
          "type": "string"
        },
        {
          "name": "quantity",
          "type": "uint256"
        },
        {
          "name": "price",
          "type": "uint256"
        },
        {
          "name": "safepay",
          "type": "uint256"
        },
        {
          "name": "delivery_price",
          "type": "uint256"
        },
        {
          "name": "delivey_safepay",
          "type": "uint256"
        }
      ],
      "payable": false,
      "stateMutability": "view",
      "type": "function",
      "signature": "0xc5cc426a"
    },
    {
      "constant": false,
      "inputs": [
        {
          "name": "orderno",
          "type": "uint256"
        },
        {
          "name": "price",
          "type": "uint256"
        },
        {
          "name": "ttype",
          "type": "int8"
        }
      ],
      "name": "sendPrice",
      "outputs": [],
      "payable": true,
      "stateMutability": "payable",
      "type": "function",
      "signature": "0xc3a1e5b3"
    },
    {
      "constant": false,
      "inputs": [
        {
          "name": "orderno",
          "type": "uint256"
        }
      ],
      "name": "sendSafepay",
      "outputs": [],
      "payable": true,
      "stateMutability": "payable",
      "type": "function",
      "signature": "0xfe285248"
    },
    {
      "constant": false,
      "inputs": [
        {
          "name": "orderno",
          "type": "uint256"
        },
        {
          "name": "delivery_date",
          "type": "uint256"
        },
        {
          "name": "_courier",
          "type": "address"
        }
      ],
      "name": "sendInvoice",
      "outputs": [],
      "payable": true,
      "stateMutability": "payable",
      "type": "function",
      "signature": "0xd4f12597"
    },
    {
      "constant": true,
      "inputs": [
        {
          "name": "invoiceno",
          "type": "uint256"
        }
      ],
      "name": "getInvoice",
      "outputs": [
        {
          "name": "buyer",
          "type": "address"
        },
        {
          "name": "orderno",
          "type": "uint256"
        },
        {
          "name": "delivery_date",
          "type": "uint256"
        },
        {
          "name": "_courier",
          "type": "address"
        }
      ],
      "payable": false,
      "stateMutability": "view",
      "type": "function",
      "signature": "0x3a23cc0a"
    }
  ],
  "bytecode": "0x60806040526040805190810160405280600b81526020017f4c6573205061696e74726500000000000000000000000000000000000000000081525060009080519060200190620000519291906200015b565b506040805190810160405280600681526020017f312e302e30760000000000000000000000000000000000000000000000000000815250600190805190602001906200009f9291906200015b565b506040516020806200156e83398101806040526020811015620000c157600080fd5b810190808051906020019092919050505033600260006101000a81548173ffffffffffffffffffffffffffffffffffffffff021916908373ffffffffffffffffffffffffffffffffffffffff16021790555080600360006101000a81548173ffffffffffffffffffffffffffffffffffffffff021916908373ffffffffffffffffffffffffffffffffffffffff160217905550506200020a565b828054600181600116156101000203166002900490600052602060002090601f016020900481019282601f106200019e57805160ff1916838001178555620001cf565b82800160010185558215620001cf579182015b82811115620001ce578251825591602001919060010190620001b1565b5b509050620001de9190620001e2565b5090565b6200020791905b8082111562000203576000816000905550600101620001e9565b5090565b90565b611354806200021a6000396000f3fe608060405260043610610099576000357c0100000000000000000000000000000000000000000000000000000000900463ffffffff16806305f8cabf1461009e5780633a23cc0a146100f557806375d0c0dc146101b15780639670d69914610241578063a0a8e46014610306578063c3a1e5b314610396578063c5cc426a146103db578063d4f12597146104e5578063fe2852481461053d575b600080fd5b3480156100aa57600080fd5b506100b361056b565b604051808273ffffffffffffffffffffffffffffffffffffffff1673ffffffffffffffffffffffffffffffffffffffff16815260200191505060405180910390f35b34801561010157600080fd5b5061012e6004803603602081101561011857600080fd5b8101908080359060200190929190505050610591565b604051808573ffffffffffffffffffffffffffffffffffffffff1673ffffffffffffffffffffffffffffffffffffffff1681526020018481526020018381526020018273ffffffffffffffffffffffffffffffffffffffff1673ffffffffffffffffffffffffffffffffffffffff16815260200194505050505060405180910390f35b3480156101bd57600080fd5b506101c6610661565b6040518080602001828103825283818151815260200191508051906020019080838360005b838110156102065780820151818401526020810190506101eb565b50505050905090810190601f1680156102335780820380516001836020036101000a031916815260200191505b509250505060405180910390f35b6103046004803603604081101561025757600080fd5b810190808035906020019064010000000081111561027457600080fd5b82018360208201111561028657600080fd5b803590602001918460018302840111640100000000831117156102a857600080fd5b91908080601f016020809104026020016040519081016040528093929190818152602001838380828437600081840152601f19601f820116905080830192505050505050509192919290803590602001909291905050506106ff565b005b34801561031257600080fd5b5061031b610a96565b6040518080602001828103825283818151815260200191508051906020019080838360005b8381101561035b578082015181840152602081019050610340565b50505050905090810190601f1680156103885780820380516001836020036101000a031916815260200191505b509250505060405180910390f35b6103d9600480360360608110156103ac57600080fd5b810190808035906020019092919080359060200190929190803560000b9060200190929190505050610b34565b005b3480156103e757600080fd5b50610414600480360360208110156103fe57600080fd5b8101908080359060200190929190505050610d04565b604051808873ffffffffffffffffffffffffffffffffffffffff1673ffffffffffffffffffffffffffffffffffffffff16815260200180602001878152602001868152602001858152602001848152602001838152602001828103825288818151815260200191508051906020019080838360005b838110156104a4578082015181840152602081019050610489565b50505050905090810190601f1680156104d15780820380516001836020036101000a031916815260200191505b509850505050505050505060405180910390f35b61053b600480360360608110156104fb57600080fd5b810190808035906020019092919080359060200190929190803573ffffffffffffffffffffffffffffffffffffffff169060200190929190505050610ea6565b005b6105696004803603602081101561055357600080fd5b8101908080359060200190929190505050611120565b005b600360009054906101000a900473ffffffffffffffffffffffffffffffffffffffff1681565b6000806000806007600086815260200190815260200160002060020160009054906101000a900460ff1615156105c657600080fd5b6000600760008781526020019081526020016000209050600060066000836000015481526020019081526020016000209050600360009054906101000a900473ffffffffffffffffffffffffffffffffffffffff16816002015482600501600401548360050160000160009054906101000a900473ffffffffffffffffffffffffffffffffffffffff16955095509550955050509193509193565b60008054600181600116156101000203166002900480601f0160208091040260200160405190810160405280929190818152602001828054600181600116156101000203166002900480156106f75780601f106106cc576101008083540402835291602001916106f7565b820191906000526020600020905b8154815290600101906020018083116106da57829003601f168201915b505050505081565b600360009054906101000a900473ffffffffffffffffffffffffffffffffffffffff1673ffffffffffffffffffffffffffffffffffffffff163373ffffffffffffffffffffffffffffffffffffffff1614151561075b57600080fd5b60086000815480929190600101919050555060e0604051908101604052808381526020018281526020016008548152602001600081526020016000815260200160e060405190810160405280600460009054906101000a900473ffffffffffffffffffffffffffffffffffffffff1673ffffffffffffffffffffffffffffffffffffffff1681526020016000815260200160008152602001600560009054906101000a900473ffffffffffffffffffffffffffffffffffffffff1673ffffffffffffffffffffffffffffffffffffffff1681526020016000815260200160008152602001600015158152508152602001600115158152506006600060085481526020019081526020016000206000820151816000019080519060200190610883929190611283565b506020820151816001015560408201518160020155606082015181600301556080820151816004015560a08201518160050160008201518160000160006101000a81548173ffffffffffffffffffffffffffffffffffffffff021916908373ffffffffffffffffffffffffffffffffffffffff160217905550602082015181600101556040820151816002015560608201518160030160006101000a81548173ffffffffffffffffffffffffffffffffffffffff021916908373ffffffffffffffffffffffffffffffffffffffff1602179055506080820151816004015560a0820151816005015560c08201518160060160006101000a81548160ff021916908315150217905550505060c082015181600c0160006101000a81548160ff0219169083151502179055509050507fb7e953e9d5dc29b2595c1ea82eed1d21925712de892f26dd7323f0040bf3f59c338383600854604051808573ffffffffffffffffffffffffffffffffffffffff1673ffffffffffffffffffffffffffffffffffffffff16815260200180602001848152602001838152602001828103825285818151815260200191508051906020019080838360005b83811015610a55578082015181840152602081019050610a3a565b50505050905090810190601f168015610a825780820380516001836020036101000a031916815260200191505b509550505050505060405180910390a15050565b60018054600181600116156101000203166002900480601f016020809104026020016040519081016040528092919081815260200182805460018160011615610100020316600290048015610b2c5780601f10610b0157610100808354040283529160200191610b2c565b820191906000526020600020905b815481529060010190602001808311610b0f57829003601f168201915b505050505081565b600260009054906101000a900473ffffffffffffffffffffffffffffffffffffffff1673ffffffffffffffffffffffffffffffffffffffff163373ffffffffffffffffffffffffffffffffffffffff16141515610b9057600080fd5b60066000848152602001908152602001600020600c0160009054906101000a900460ff161515610bbf57600080fd5b60018160000b1480610bd4575060028160000b145b1515610bdf57600080fd5b60018160000b1415610c0b57816006600085815260200190815260200160002060030181905550610c5c565b81600660008581526020019081526020016000206005016001018190555060016006600085815260200190815260200160002060050160060160006101000a81548160ff0219169083151502179055505b7faf54ca7c1ecf75ea1c151f265e9ab3eeecb27d19e8d3ec6b7e199414dd0c1ed6600360009054906101000a900473ffffffffffffffffffffffffffffffffffffffff16848484604051808573ffffffffffffffffffffffffffffffffffffffff1673ffffffffffffffffffffffffffffffffffffffff1681526020018481526020018381526020018260000b60000b815260200194505050505060405180910390a1505050565b60006060600080600080600060066000898152602001908152602001600020600c0160009054906101000a900460ff161515610d3f57600080fd5b600360009054906101000a900473ffffffffffffffffffffffffffffffffffffffff16600660008a8152602001908152602001600020600001600660008b815260200190815260200160002060010154600660008c815260200190815260200160002060030154600660008d815260200190815260200160002060040154600660008e815260200190815260200160002060050160010154600660008f815260200190815260200160002060050160020154858054600181600116156101000203166002900480601f016020809104026020016040519081016040528092919081815260200182805460018160011615610100020316600290048015610e865780601f10610e5b57610100808354040283529160200191610e86565b820191906000526020600020905b815481529060010190602001808311610e6957829003601f168201915b505050505095509650965096509650965096509650919395979092949650565b60066000848152602001908152602001600020600c0160009054906101000a900460ff161515610ed557600080fd5b3373ffffffffffffffffffffffffffffffffffffffff16600260009054906101000a900473ffffffffffffffffffffffffffffffffffffffff1673ffffffffffffffffffffffffffffffffffffffff16141515610f3157600080fd5b600960008154809291906001019190505550606060405190810160405280848152602001600954815260200160011515815250600760006009548152602001908152602001600020600082015181600001556020820151816001015560408201518160020160006101000a81548160ff021916908315150217905550905050816006600085815260200190815260200160002060050160040181905550600460009054906101000a900473ffffffffffffffffffffffffffffffffffffffff166006600085815260200190815260200160002060050160000160006101000a81548173ffffffffffffffffffffffffffffffffffffffff021916908373ffffffffffffffffffffffffffffffffffffffff1602179055507fbc1c01dc0d1e366f76a22e7db8af8028033bd0a521feaf529046a6bc413ce0f0600360009054906101000a900473ffffffffffffffffffffffffffffffffffffffff16600954858585604051808673ffffffffffffffffffffffffffffffffffffffff1673ffffffffffffffffffffffffffffffffffffffff1681526020018581526020018481526020018381526020018273ffffffffffffffffffffffffffffffffffffffff1673ffffffffffffffffffffffffffffffffffffffff1681526020019550505050505060405180910390a1505050565b60066000828152602001908152602001600020600c0160009054906101000a900460ff16151561114f57600080fd5b3373ffffffffffffffffffffffffffffffffffffffff16600360009054906101000a900473ffffffffffffffffffffffffffffffffffffffff1673ffffffffffffffffffffffffffffffffffffffff161415156111ab57600080fd5b3460066000838152602001908152602001600020600501600101546006600084815260200190815260200160002060030154011415156111ea57600080fd5b3460066000838152602001908152602001600020600401819055507f4ca09f9926d2e48ef31cb6b14dbda230c7420702b8a8f5b878dd572c593e99d233823442604051808573ffffffffffffffffffffffffffffffffffffffff1673ffffffffffffffffffffffffffffffffffffffff16815260200184815260200183815260200182815260200194505050505060405180910390a150565b828054600181600116156101000203166002900490600052602060002090601f016020900481019282601f106112c457805160ff19168380011785556112f2565b828001600101855582156112f2579182015b828111156112f15782518255916020019190600101906112d6565b5b5090506112ff9190611303565b5090565b61132591905b80821115611321576000816000905550600101611309565b5090565b9056fea165627a7a7230582071f78464028a982b996d7fcc1aa5c1b80fea40026323e221db203cbee8bba7c00029",
  "source": "pragma solidity >= 0.4 .21 < 0.6 .0;\n\ncontract Painter {\n    // Contract name and version\n    string public contractName = \"Les Paintre\";\n    string public contractVersion = \"1.0.0v\";\n\n    // Sellers and Buyers address\n    address payable owner;\n    address public buyersAdress;\n    address payable courier;\n    address private payer;\n\n\n    struct Buyer {\n        address addr;\n        string name;\n        bool init;\n    }\n\n    struct Shipment {\n        address courier;\n        uint price;\n        uint safepay;\n        address payer;\n        uint date;\n        uint real_date;\n\n        bool init;\n    }\n\n    struct Order {\n        string goods;\n        uint quantity;\n        uint number;\n        uint price;\n        uint safepay;\n        Shipment shipment;\n\n        bool init;\n    }\n    struct Invoice {\n        uint orderno;\n        uint number;\n\n        bool init;\n    }\n    /// The mapping to store orders\n    mapping(uint => Order) orders;\n\n    /// The mapping to store invoices\n    mapping(uint => Invoice) invoices;\n\n    /// The sequence number of orders\n    uint orderseq;\n\n    /// The sequence number of invoices\n    uint invoiceseq;\n\n    /// Event triggered for every registered buyer\n    event BuyerRegistered(address buyer, string name);\n\n    /// Event triggered for every new order\n    event OrderSent(address buyer, string goods, uint quantity, uint orderno);\n\n    /// Event triggerd when the order gets valued and wants to know the value of the payment\n    event PriceSent(address buyer, uint orderno, uint price, int8 ttype);\n\n    /// Event trigger when the buyer performs the safepay\n    event SafepaySent(address buyer, uint orderno, uint value, uint now);\n\n    /// Event triggered when the seller sends the invoice\n    event InvoiceSent(address buyer, uint invoiceno, uint orderno, uint delivery_date, address courier);\n\n    /// Event triggered when the courie delives the order\n    event OrderDelivered(address buyer, uint invoiceno, uint orderno, uint real_delivey_date, address courier);\n\n    /// The smart contract's constructor\n    constructor(address _buyerAddr) public payable {\n        /// The seller is the contract's owner\n        owner = msg.sender;\n\n        buyersAdress = _buyerAddr;\n    }\n\n    /// The function to send purchase orders\n    ///   requires fee\n    ///   Payable functions returns just the transaction object, with no custom field.\n    ///   To get field values listen to OrderSent event.\n    function sendOrder(string memory goods, uint quantity) payable public {\n        /// Accept orders just from buyer\n        require(msg.sender == buyersAdress);\n\n        /// Increment the order sequence\n        orderseq++;\n\n        /// Create the order register\n        orders[orderseq] = Order(goods, quantity, orderseq, 0, 0, Shipment(courier, 0, 0, payer, 0, 0, false), true);\n\n        /// Trigger the event\n        emit OrderSent(msg.sender, goods, quantity, orderseq);\n    }\n\n    /// The function to query orders by number\n    ///   Constant functions returns custom fields\n    function queryOrder(uint number) view public returns(address buyer, string memory goods, uint quantity, uint price, uint safepay, uint delivery_price, uint delivey_safepay) {\n\n        /// Validate the order number\n        require(orders[number].init);\n\n        /// Return the order data\n        return (buyersAdress, orders[number].goods, orders[number].quantity, orders[number].price, orders[number].safepay, orders[number].shipment.price, orders[number].shipment.safepay);\n    }\n\n    /// The function to send the price to pay for order\n    ///  Just the owner can call this function\n    ///  requires fee\n    function sendPrice(uint orderno, uint price, int8 ttype) payable public {\n\n        /// Only the owner can use this function\n        require(msg.sender == owner);\n\n        /// Validate the order number\n        require(orders[orderno].init);\n\n        /// Validate the type\n        // /  1=order\n        ///  2=shipment\n        require(ttype == 1 || ttype == 2);\n\n        if (ttype == 1) { /// Price for Order\n\n            /// Update the order price\n            orders[orderno].price = price;\n\n        } else { /// Price for Shipment\n\n            /// Update the shipment price\n            orders[orderno].shipment.price = price;\n            orders[orderno].shipment.init = true;\n        }\n\n        /// Trigger the event\n        emit PriceSent(buyersAdress, orderno, price, ttype);\n\n    }\n\n    // Sends the value of safe pay, blocked until the delivery of orders\n    function sendSafepay(uint orderno) payable public {\n\n        /// Validate the order number\n        require(orders[orderno].init);\n\n        /// Just the buyer can make safepay\n        require(buyersAdress == msg.sender);\n\n        /// The order's value plus the shipment value must equal to msg.value\n        require((orders[orderno].price + orders[orderno].shipment.price) == msg.value);\n\n        orders[orderno].safepay = msg.value;\n\n        emit SafepaySent(msg.sender, orderno, msg.value, now);\n    }\n\n     function sendInvoice(uint orderno, uint delivery_date, address _courier) payable public {\n\n    /// Validate the order number\n    require(orders[orderno].init);\n\n    /// Just the seller can send the invoice\n    require(owner == msg.sender);\n\n    invoiceseq++;\n\n    /// Create then Invoice instance and store it\n    invoices[invoiceseq] = Invoice(orderno, invoiceseq, true);\n\n    /// Update the shipment data\n    orders[orderno].shipment.date    = delivery_date;\n    orders[orderno].shipment.courier = courier;\n\n    /// Trigger the event\n    emit InvoiceSent(buyersAdress, invoiceseq, orderno, delivery_date, _courier);\n  }\n    /// The function to get the sent invoice\n  ///  requires no fee\n  function getInvoice(uint invoiceno) view public returns (address buyer, uint orderno, uint delivery_date, address _courier){\n  \n    /// Validate the invoice number\n    require(invoices[invoiceno].init);\n\n    Invoice storage _invoice = invoices[invoiceno];\n    Order storage _order     = orders[_invoice.orderno];\n\n    return (buyersAdress, _order.number, _order.shipment.date, _order.shipment.courier);\n  }\n\n    /// The function to mark an order as delivered\n//   function delivery(uint invoiceno, uint timestamp) payable public {\n\n//     /// Validate the invoice number\n//     require(invoices[invoiceno].init);\n\n\n//     Invoice storage _invoice = invoices[invoiceno];\n//     Order storage _order     = orders[_invoice.orderno];\n\n//     /// Just the courier can call this function\n//     require(_order.shipment.courier == msg.sender);\n\n//     emit OrderDelivered(buyersAdress, invoiceno, _order.number, timestamp, _order.shipment.courier);\n\n\n//     /// Payout the Order to the seller\n//     owner.transfer(_order.safepay);\n\n//     /// Payout the Shipment to the courier\n//     _order.shipment.courier.transfer(_order.shipment.safepay);\n//   }\n}",
  "sourcePath": "/Users/admin/Desktop/delta/b2b/contracts/Painture.sol",
  "compiler": {
    "name": "solc",
    "version": "0.5.0+commit.1d4f565a.Emscripten.clang"
  },
  "schemaVersion": "3.0.0",
  "updatedAt": "2018-12-29T16:08:50.318Z",
  "devdoc": {
    "methods": {}
  },
  "userdoc": {
    "methods": {
      "constructor": "The smart contract's constructor",
      "getInvoice(uint256)": {
        "notice": "The function to get the sent invoice  requires no fee"
      },
      "queryOrder(uint256)": {
        "notice": "The function to query orders by number   Constant functions returns custom fields"
      },
      "sendOrder(string,uint256)": {
        "notice": "The function to send purchase orders   requires fee   Payable functions returns just the transaction object, with no custom field.   To get field values listen to OrderSent event."
      },
      "sendPrice(uint256,uint256,int8)": {
        "notice": "The function to send the price to pay for order  Just the owner can call this function  requires fee"
      }
    }
  }
}